:020000040800F2
:100000003004002081020008E1020008E10200083B
:10001000E1020008E1020008E1020008000000001F
:10002000000000000000000000000000E1020008E5
:10003000E102000800000000E1020008E1020008FF
:10004000E1020008E1020008E1020008E102000804
:10005000E1020008E1020008E1020008E1020008F4
:10006000E1020008E1020008E1020008E1020008E4
:10007000E1020008E1020008E1020008E1020008D4
:10008000E1020008E1020008E1020008E1020008C4
:10009000E1020008E1020008E1020008E1020008B4
:1000A000E1020008E1020008E1020008E1020008A4
:1000B000E1020008E1020008E1020008E102000894
:1000C000E1020008E1020008E1020008E102000884
:1000D000E1020008E1020008E1020008E102000874
:1000E000E1020008E1020008E1020008000000004F
:1000F0000000000000000000000000000000000000
:1001000000000000000000005FF808F180B500AFBB
:10011000154A154B1B6843F0010313601249124B3B
:100120005A68124B13404B600F4A0F4B1B6823F069
:10013000847323F4803313600B4A0B4B1B6823F446
:1001400080231360084A084B5B6823F4FE03536066
:10015000054B4FF41F029A6000F00CF8044B4FF06F
:1001600000629A6000BF80BD001002400000FFF8EE
:1001700000ED00E080B500AF00F002F800BF80BDE8
:1001800080B483B000AF00237B6000233B603A4A19
:10019000394B1B6843F480331360374B1B6803F4FF
:1001A00000333B607B6801337B603B68002B03D1ED
:1001B0007B68B3F5A06FF0D12F4B1B6803F40033BD
:1001C000002B02D001233B6001E000233B603B6831
:1001D000012B4BD1294A294B1B6843F010031360B4
:1001E000264A264B1B6823F003031360234A234B44
:1001F0001B6843F0020313601F4A1F4B5B68536088
:100200001D4A1D4B5B6853601B4A1B4B5B6843F4E4
:1002100080635360184A184B5B6823F47C13536067
:10022000154A154B5B6843F4E8135360124A124BAE
:100230001B6843F08073136000BF0F4B1B6803F013
:100240000073002BF9D00C4A0B4B5B6823F00303BF
:100250005360094A084B5B6843F00203536000BFD8
:10026000054B5B6803F00C03082BF9D100BF0C377A
:10027000BD4680BC704700BF001002400020024015
:1002800080B582B000AF114B7B60114B3B6007E043
:100290003B681A1D3A607A68111D796012681A600D
:1002A0003B680C4A9342F3D30B480C494FF00002D1
:1002B0008842B8BF40F8042BFADBFFF727FF00F0B5
:1002C00087FB00BF0837BD4680BD00BF501A00083D
:1002D0000000002014000020140000203000002046
:1002E00080B400AFFEE700BF80B489B000AF786093
:1002F00039600023FB6100233B610023BB610023C5
:10030000FB6000237B610023BB603B68DB7803F06C
:100310000F03FB613B68DB7803F01003002B05D073
:100320003B689B781A46FB691343FB613B681B885B
:10033000DBB2002B44D07B681B687B610023BB6170
:1003400038E00122BB6902FA03F3FB603B681B88BB
:100350001A46FB6813403B613A69FB689A4226D112
:10036000BB699B00FB600F22FB6802FA03F3BB60D2
:10037000BB68DB437A6913407B61FA69FB6802FA68
:1003800003F37A6913437B613B68DB78282B05D143
:100390000122BB699A407B685A6108E03B68DB78C0
:1003A000482B04D10122BB699A407B681A61BB6962
:1003B0000133BB61BB69072BC3D97B687A691A60BB
:1003C0003B681B88FF2B46D97B685B687B610023F9
:1003D000BB613AE0BB690833012202FA03F3FB6018
:1003E0003B681B881A46FB6813403B613A69FB680F
:1003F0009A4227D1BB699B00FB600F22FB6802FA7F
:1004000003F3BB60BB68DB437A6913407B61FA6925
:10041000FB6802FA03F37A6913437B613B68DB787C
:10042000282B05D1BB69083301229A407B685A61A9
:100430003B68DB78482B05D1BB69083301229A4021
:100440007B681A61BB690133BB61BB69072BC1D9EA
:100450007B687A695A6000BF2437BD4680BC70470C
:1004600080B487B000AF78600B46FB7000233B611F
:100470000023FB6000237B610023BB607B68002BB3
:1004800003DA2E4BDB697B6102E02C4B5B687B61FE
:100490007B681B0C03F00F03BB607B689BB23B6166
:1004A0007B6803F44013B3F5401F0AD17B6923F046
:1004B00070637B61214A214B5B6823F0706353605A
:1004C00021E07B6803F48013002B0ED00322BB686D
:1004D00002FA03F3FB60FB68DB437A6913407B613C
:1004E0007B6943F070637B610DE07B685B0D1B01F2
:1004F0003A6902FA03F3DB437A6913407B617B6953
:1005000043F070637B61FB78002B08D07B685B0D48
:100510001B013A6902FA03F37A6913437B617B6832
:10052000002B03DA054A7B69D36102E0034A7B6949
:10053000536000BF1C37BD4680BC704700000140BF
:1005400080B483B000AF78602F4A2F4BDB6943F053
:100550000103D3614FF0804347221A854FF0804357
:1005600040F2E7329A854FF0804300229A844FF0A0
:1005700080424FF080439B8A9BB243F001039BB2C1
:1005800093824FF080424FF080431B8A9BB223F04E
:1005900001039BB213824FF080424FF080431B88CF
:1005A0009BB243F001039BB2138015E000BF4FF0F4
:1005B00080431B8A9BB203F00103002BF7D04FF05E
:1005C00080424FF080431B8A9BB223F001039BB211
:1005D00013827B68013B7B607B68002BE6DC4FF07D
:1005E00080424FF080431B889BB223F001039BB2F3
:1005F0001380054A044BDB6923F00103D36100BF7C
:100600000C37BD4680BC70470010024080B500AF7B
:1006100001214FF4001000F0CFFA0121082000F072
:10062000ADFA184BC0221A80164B1C22DA70154BFB
:1006300003229A7013491448FFF756FE0121022045
:10064000FFF70EFF114B124A1A60104B00229A80DE
:100650000E4B4BF6FF72DA800C4B4FF480625A81DE
:100660000A4B4FF480429A81084B00221A810749B5
:10067000084800F0BFFA0121064800F07DFB00BFEA
:1006800080BD00BF14000020000C014020000020AD
:10069000A08601000054004080B582B000AF7860B1
:1006A0000B46FB701346BB7000BF4FF400317868F7
:1006B00000F04EFC0346002BF7D10121154800F055
:1006C0007BFB00BF1449134800F012FC0346002BCB
:1006D000F8D0BA78FB781946786800F0EBFBBB7865
:1006E000002B08D100BF0D49786800F001FC0346DB
:1006F000002BF8D00AE0BB78012B07D100BF0849D6
:10070000786800F0F5FB0346002BF8D000BF0837EF
:10071000BD4680BD00540040010003008200070078
:100720000200030080B582B000AF78600B46FB701A
:100730001346BB700121164800F03EFB00BF15496F
:10074000134800F0D5FB0346002BF8D0BA78FB78AD
:100750001946786800F0AEFBBB78002B08D100BFCB
:100760000D49786800F0C4FB0346002BF8D00AE07E
:10077000BB78012B07D100BF0849786800F0B8FBAF
:100780000346002BF8D000BF0837BD4680BD00BF30
:100790000054004001000300820007000200030033
:1007A00080B582B000AF78600B46FB70FB781946CD
:1007B000074800F061FB00BF0649054800F098FBC0
:1007C0000346002BF8D000BF0837BD4680BD00BFF0
:1007D000005400408400070080B584B000AF78600A
:1007E00001210A4800F028FB00BF0949074800F032
:1007F0007FFB0346002BF8D0044800F04DFB034676
:10080000FB73FB7B18461037BD4680BD005400408B
:100810004000030080B582B000AF7860012103483A
:1008200000F0EAFA00BF0837BD4680BD0054004022
:1008300080B584B000AF78600B46FB701346BB7088
:100840005020FFF77DFEFB78002219462248FFF773
:1008500023FF5020FFF774FEBB7819461E48FFF7B0
:100860009FFF5020FFF76CFEFB78012219461A48C3
:10087000FFF758FF5020FFF763FE1748FFF7ACFF64
:100880000346FB735020FFF75BFE1348FFF7A4FFFE
:100890000346BB735020FFF753FE7868FFF79CFFB9
:1008A00003467B735020FFF74BFE7868FFF7B2FFDB
:1008B0005020FFF745FEFB7B1B021AB2BB7B1BB22D
:1008C00013431BB27B817B8923F003039BB2184641
:1008D0001037BD4680BD00BF00540040000000003E
:1008E00090B585B000AF78600B46FB70FB78F522C1
:1008F00019467868FFF79CFF0346FB81FB89184681
:1009000000F0AAFC4FF00002114B00F00BFD034673
:100910000C46184621460CA3D3E9002300F02CFE18
:1009200003460C461846214600F00EFF0346BB6006
:100930000849B86800F05CFF0346BB60BB68184616
:100940001437BD4690BD00BF00000000E0FFEF403F
:1009500000405F400000C04090B585B000AF7860B7
:100960000B46FB70FB78F32219467868FFF760FFAF
:100970000346FB81FB89184600F06EFC10A3D3E907
:10098000002300F0CFFC03460C461846214600F039
:10099000DBFE0346BB60B86800F070FC0AA3D3E935
:1009A000002300F00BFB03460C461846214600F0DE
:1009B000CBFE0346BB60BB6818461437BD4690BDEE
:1009C000D7A3703D0AF7653FCDCCCCCCCC6C47406B
:1009D00080B500AFFFF71AFE80210D48FFF7BCFF7E
:1009E0000346184601F00EF802460A4B1A604FF40F
:1009F0007A70FFF7A5FD80210548FFF771FF0346D8
:100A0000184600F0FFFF0246034B1A60E4E700BF00
:100A100000540040180000201C00002080B487B063
:100A200000AF786000237B6100233B610023FB6003
:100A30000023BB604C4B5B6803F00C037B617B695C
:100A4000042B07D0082B09D0002B33D17B68474AF1
:100A50001A6033E07B68454A1A602FE0424B5B68BE
:100A600003F470133B61404B5B6803F48033FB601D
:100A70003B699B0C02333B61FB68002B06D13B6951
:100A80003B4A02FB03F27B681A6017E0364B5B6857
:100A900003F40033002B06D03B69354A02FB03F216
:100AA0007B681A600AE03B69304A02FB03F27B680C
:100AB0001A6003E07B682D4A1A6000BF2A4B5B680E
:100AC00003F0F0037B617B691B097B61294A7B6929
:100AD00013441B78DBB2BB607B681A68BB68DA40E2
:100AE0007B685A60204B5B6803F4E0637B617B6941
:100AF0001B0A7B611F4A7B6913441B78DBB2BB6016
:100B00007B685A68BB68DA407B689A60164B5B6802
:100B100003F460537B617B69DB0A7B61154A7B6967
:100B200013441B78DBB2BB607B685A68BB68DA4051
:100B30007B68DA600C4B5B6803F440437B617B6944
:100B40009B0B7B610C4A7B6913441B78DBB2BB6057
:100B50007B68DA68BB68B2FBF3F27B681A6100BF9E
:100B60001C37BD4680BC70470010024000127A005E
:100B700000093D00000000201000002080B483B078
:100B800000AF78600B46FB70FB78002B06D009495C
:100B9000084B9A697B6813438B6106E00549054B56
:100BA0009A697B68DB4313408B6100BF0C37BD46FD
:100BB00080BC70470010024080B483B000AF786002
:100BC0000B46FB70FB78002B06D00949084BDA690D
:100BD0007B681343CB6106E00549054BDA697B6806
:100BE000DB431340CB6100BF0C37BD4680BC704770
:100BF0000010024080B58AB000AF786039600023F1
:100C0000FB8400237B840423BB84574BFB617B68FC
:100C10009B88FB84FB8C23F03F03FB8407F10803D4
:100C20001846FFF7FBFE3B69FB61FB694F4AA2FBDD
:100C300003239B0C7B84FA8C7B8C1343FB847B68A3
:100C4000FA8C9A807B681B889BB223F001039AB2CE
:100C50007B681A800023FB843B681B68444A9342EC
:100C600015D83B681B685B00FA69B2FBF3F3BB84E1
:100C7000BB8C032B01D80423BB84FA8CBB8C13439D
:100C8000FB847B8C01339AB27B681A8440E03B681A
:100C9000DB884BF6FF72934209D13B681A68134612
:100CA0005B001344FA69B2FBF3F3BB840EE03B68CC
:100CB0001A6813469B0013449A001344FA69B2FB66
:100CC000F3F3BB84BB8C43F48043BB84BB8CC3F382
:100CD0000B03002B03D1BB8C43F00103BB84BA8C04
:100CE000FB8C13439BB26FEA43436FEA5343FB848D
:100CF0007B8C4FF4967202FB03F31E4A82FB0312B5
:100D00009211DB17D31A9BB201339AB27B681A8413
:100D10007B68FA8C9A837B681B889BB243F0010343
:100D20009AB27B681A807B681B88FB84FB8C23F457
:100D3000816323F00203FB843B689A883B685B89EC
:100D400013439AB2FB8C1343FB847B68FA8C1A80A2
:100D50003B689A893B681B8913439AB27B681A8166
:100D600000BF2837BD4680BD00127A0083DE1B43DA
:100D7000A0860100D34D621080B483B000AF7860CC
:100D80000B46FB70FB78002B08D07B681B889BB25E
:100D900043F001039AB27B681A8007E07B681B88E6
:100DA0009BB223F001039AB27B681A8000BF0C3714
:100DB000BD4680BC704700BF80B483B000AF786090
:100DC0000B46FB70FB78002B08D07B681B889BB21E
:100DD00043F480739AB27B681A8007E07B681B88B3
:100DE0009BB223F480739AB27B681A8000BF0C37E1
:100DF000BD4680BC704700BF80B483B000AF786050
:100E00000B46FB70FB78002B08D07B681B889BB2DD
:100E100043F400739AB27B681A8007E07B681B88F2
:100E20009BB223F400739AB27B681A8000BF0C3720
:100E3000BD4680BC704700BF80B483B000AF78600F
:100E40000B46FB70FB78002B08D07B681B889BB29D
:100E500043F480639AB27B681A8007E07B681B8842
:100E60009BB223F480639AB27B681A8000BF0C3770
:100E7000BD4680BC704700BF80B483B000AF7860CF
:100E80000B46FB70FB789AB27B681A8200BF0C3766
:100E9000BD4680BC704700BF80B483B000AF7860AF
:100EA0007B681B8A9BB2DBB218460C37BD4680BC00
:100EB000704700BF80B483B000AF78600B46FB7012
:100EC0001346BB70BB78002B04D0FB7843F00103C2
:100ED000FB7003E0FB7823F00103FB70FB789AB210
:100EE0007B681A8200BF0C37BD4680BC704700BFCC
:100EF00080B487B000AF7860396000233B61002385
:100F0000FB600023BB600023FB757B689B8A9BB260
:100F1000FB607B681B8B9BB2BB60BB681B04BB6028
:100F2000FA68BB68134323F07F433B613A693B682F
:100F30001A403B689A4202D10123FB7501E000236D
:100F4000FB75FB7D18461C37BD4680BC704700BF53
:100F500080B487B000AF786039600023FB75002350
:100F60003B610023FB607B68FB603B681B0F3B61C0
:100F70003B6823F07F433B603B69002B03D0FB6859
:100F80001433FB6005E03B681B0C3B60FB681833C7
:100F9000FB60FB681A683B681340002B02D00123FA
:100FA000FB7501E00023FB75FB7D18461C37BD4631
:100FB00080BC704781F0004102E000BF83F0004335
:100FC00030B54FEA41044FEA430594EA050F08BFE4
:100FD00090EA020F1FBF54EA000C55EA020C7FEAA8
:100FE000645C7FEA655C00F0E2804FEA5454D4EB25
:100FF0005555B8BF6D420CDD2C4480EA020281EAEF
:10100000030382EA000083EA010180EA020281EA26
:101010000303362D88BF30BD11F0004F4FEA013178
:101020004FF4801C4CEA113102D0404261EB410187
:1010300013F0004F4FEA03334CEA133302D052420D
:1010400063EB430394EA050F00F0A780A4F10104C9
:10105000D5F1200E0DDB02FA0EFC22FA05F2801803
:1010600041F1000103FA0EF2801843FA05F35941E9
:101070000EE0A5F120050EF1200E012A03FA0EFC68
:1010800028BF4CF0020C43FA05F3C01851EBE37192
:1010900001F0004507D54FF0000EDCF1000C7EEBAF
:1010A00000006EEB0101B1F5801F1BD3B1F5001FED
:1010B0000CD349085FEA30004FEA3C0C04F101040C
:1010C0004FEA445212F5800F80F09A80BCF1004F35
:1010D00008BF5FEA500C50F1000041EB045141EAB7
:1010E000050130BD5FEA4C0C404141EB010111F4B8
:1010F000801FA4F10104E9D191F0000F04BF014663
:101100000020B1FA81F308BF2033A3F10B03B3F140
:1011100020020CDA0C3208DD02F1140CC2F10C02D0
:1011200001FA0CF021FA02F10CE002F11402D8BF2E
:10113000C2F1200C01FA02F120FA0CFCDCBF41EAFA
:101140000C019040E41AA2BF01EB0451294330BDC9
:101150006FEA04041F3C1CDA0C340EDC04F11404A6
:10116000C4F1200220FA04F001FA02F340EA03007D
:1011700021FA04F345EA030130BDC4F10C04C4F1C3
:10118000200220FA02F001FA04F340EA03002946A3
:1011900030BD21FA04F0294630BD94F0000F83F4ED
:1011A000801306BF81F480110134013D4EE77FEAD0
:1011B000645C18BF7FEA655C29D094EA050F08BF1C
:1011C00090EA020F05D054EA000C04BF19461046FD
:1011D00030BD91EA030F1EBF0021002030BD5FEA41
:1011E000545C05D14000494128BF41F0004130BD69
:1011F00014F580043CBF01F5801130BD01F00045BD
:1012000045F0FE4141F470014FF0000030BD7FEA2F
:10121000645C1ABF194610467FEA655C1CBF0B462A
:10122000024650EA013406BF52EA033591EA030F41
:1012300041F4002130BD00BF90F0000F04BF002139
:10124000704730B54FF4806404F132044FF000056C
:101250004FF0000150E700BF90F0000F04BF0021E5
:10126000704730B54FF4806404F1320410F000454B
:1012700048BF40424FF000013EE700BF42004FEA46
:10128000E2014FEA31014FEA02701FBF12F07F43C3
:1012900093F07F4F81F06051704792F0000F14BFC0
:1012A00093F07F4F704730B54FF4607401F0004504
:1012B00021F0004120E700BF50EA010208BF70475B
:1012C00030B54FF000050AE050EA010208BF704750
:1012D00030B511F0004502D5404261EB41014FF4B9
:1012E000806404F132045FEA915C3FF4DCAE4FF0BD
:1012F00003025FEADC0C18BF03325FEADC0C18BFA4
:10130000033202EBDC02C2F1200300FA03FC20FAF4
:1013100002F001FA03FE40EA0E0021FA02F1144441
:10132000C1E600BF70B54FF0FF0C4CF4E06C1CEA56
:1013300011541DBF1CEA135594EA0C0F95EA0C0FCB
:1013400000F0DEF82C4481EA030621EA4C5123EA3E
:101350004C5350EA013518BF52EA033541F480116D
:1013600043F4801338D0A0FB02CE4FF00005E1FB20
:1013700002E506F00042E0FB03E54FF00006E1FB6A
:1013800003569CF0000F18BF4EF0010EA4F1FF04AD
:10139000B6F5007F64F5407404D25FEA4E0E6D41ED
:1013A00046EB060642EAC62141EA55514FEAC520FE
:1013B00040EA5E504FEACE2EB4F1FD0C88BFBCF57A
:1013C000E06F1ED8BEF1004F08BF5FEA500E50F12B
:1013D000000041EB045170BD06F0004646EA0101F1
:1013E00040EA020081EA0301B4EB5C04C2BFD4EB23
:1013F0000C0541EA045170BD41F480114FF0000E1C
:10140000013C00F3AB8014F1360FDEBF002001F089
:10141000004170BDC4F10004203C35DA0C341BDC03
:1014200004F11404C4F1200500FA05F320FA04F0D5
:1014300001FA05F240EA020001F0004221F0004109
:1014400010EBD37021FA04F642EB06015EEA430E7C
:1014500008BF20EAD37070BDC4F10C04C4F12005AC
:1014600000FA04F320FA05F001FA04F240EA02005F
:1014700001F0004110EBD37041F100015EEA430E30
:1014800008BF20EAD37070BDC4F1200500FA05F250
:101490004EEA020E20FA04F301FA05F243EA0203CF
:1014A00021FA04F001F0004121FA04F220EA0200DE
:1014B00000EBD3705EEA430E08BF20EAD37070BD24
:1014C00094F0000F0FD101F00046400041EB010104
:1014D00011F4801F08BF013CF7D041EA060195F0E6
:1014E000000F18BF704703F00046520043EB0303A0
:1014F00013F4801F08BF013DF7D043EA060370478D
:1015000094EA0C0F0CEA135518BF95EA0C0F0CD097
:1015100050EA410618BF52EA4306D1D181EA0301DD
:1015200001F000414FF0000070BD50EA410606BFD7
:101530001046194652EA430619D094EA0C0F02D11C
:1015400050EA013613D195EA0C0F05D152EA033661
:101550001CBF104619460AD181EA030101F000417F
:1015600041F0FE4141F470014FF0000070BD41F0C8
:10157000FE4141F4780170BD70B54FF0FF0C4CF4A2
:10158000E06C1CEA11541DBF1CEA135594EA0C0FC1
:1015900095EA0C0F00F0A7F8A4EB050481EA030E0E
:1015A00052EA03354FEA013100F088804FEA0333F5
:1015B0004FF0805545EA131343EA12634FEA0222C3
:1015C00045EA111545EA10654FEA00260EF0004184
:1015D0009D4208BF964244F1FD0404F5407402D2D6
:1015E0005B084FEA3202B61A65EB03055B084FEA67
:1015F00032024FF480104FF4002CB6EB020E75EB64
:10160000030E22BFB61A754640EA0C005B084FEA8B
:101610003202B6EB020E75EB030E22BFB61A754608
:1016200040EA5C005B084FEA3202B6EB020E75EB53
:10163000030E22BFB61A754640EA9C005B084FEACB
:101640003202B6EB020E75EB030E22BFB61A7546D8
:1016500040EADC0055EA060E18D04FEA051545EAC7
:1016600016754FEA06164FEAC30343EA52734FEA70
:10167000C2025FEA1C1CC0D111F4801F0BD141EAE9
:1016800000014FF000004FF0004CB6E711F4801F4E
:1016900004BF01430020B4F1FD0C88BFBCF5E06F2E
:1016A0003FF6AFAEB5EB030C04BFB6EB020C5FEA3E
:1016B000500C50F1000041EB045170BD0EF0004E93
:1016C0004EEA113114EB5C04C2BFD4EB0C0541EAC5
:1016D000045170BD41F480114FF0000E013C90E6C2
:1016E00045EA060E8DE60CEA135594EA0C0F08BF86
:1016F00095EA0C0F3FF43BAF94EA0C0F0AD150EA85
:1017000001347FF434AF95EA0C0F7FF425AF104617
:1017100019462CE795EA0C0F06D152EA03353FF43F
:10172000FDAE1046194622E750EA410618BF52EABC
:1017300043067FF4C5AE50EA41047FF40DAF52EA90
:1017400043057FF4EBAE12E74FEA4102B2F1E0430A
:1017500024BFB3F5001CDCF1FE5C0DD901F0004C98
:101760004FEAC0024CEA5070B2F1004F40EB8300E8
:1017700008BF20F00100704711F0804F21D113F114
:101780003872BCBF01F00040704741F480114FEA4D
:101790005252C2F11802C2F1200C10FA0CF320FAD6
:1017A00002F018BF40F001004FEAC1234FEAD323F3
:1017B00003FA0CFC40EA0C0023FA02F34FEA43035D
:1017C000CCE77FEA625307D150EA01331EBF4FF0E6
:1017D000FE4040F44000704701F0004040F0FE4001
:1017E00040F40000704700BF80F0004002E000BFFE
:1017F00081F0004142001FBF5FEA410392EA030FFC
:101800007FEA226C7FEA236C6AD04FEA1262D2EB45
:101810001363C1BFD218414048404140B8BF5B424A
:10182000192B88BF704710F0004F40F4000020F0E3
:101830007F4018BF404211F0004F41F4000121F0F9
:101840007F4118BF494292EA030F3FD0A2F1010243
:1018500041FA03FC10EB0C00C3F1200301FA03F181
:1018600000F0004302D5494260EB4000B0F5000FA4
:1018700013D3B0F1807F06D340084FEA310102F163
:101880000102FE2A51D2B1F1004F40EBC25008BF15
:1018900020F0010040EA03007047490040EB0000DF
:1018A00010F4000FA2F10102EDD1B0FA80FCACF10E
:1018B000080CB2EB0C0200FA0CF0AABF00EBC2500D
:1018C00052421843BCBFD0401843704792F0000FFB
:1018D00081F4000106BF80F400000132013BB5E74E
:1018E0004FEA41037FEA226C18BF7FEA236C21D0C4
:1018F00092EA030F04D092F0000F08BF0846704729
:1019000090EA010F1CBF0020704712F07F4F04D1F6
:10191000400028BF40F00040704712F100723CBF09
:1019200000F50000704700F0004343F0FE4040F433
:10193000000070477FEA226216BF08467FEA2363F1
:101940000146420206BF5FEA412390EA010F40F4DC
:10195000800070474FF0000304E000BF10F0004328
:1019600048BF40425FEA000C08BF704743F096430F
:1019700001464FF000001CE050EA010208BF70472A
:101980004FF000030AE000BF50EA010208BF7047B1
:1019900011F0004302D5404261EB41015FEA010CC6
:1019A00002BF84460146002043F0B64308BFA3F1BE
:1019B0008053A3F50003BCFA8CF2083AA3EBC253A0
:1019C00010DB01FA02FC634400FA02FCC2F12002BF
:1019D000BCF1004F20FA02F243EB020008BF20F0F6
:1019E0000100704702F1200201FA02FCC2F120025C
:1019F00050EA4C0021FA02F243EB020008BF20EA51
:101A0000DC7070474FEA4002B2F1FE4F0FD34FF047
:101A10009E03B3EB12620DD94FEA002343F000435B
:101A200010F0004F23FA02F018BF404270474FF009
:101A30000000704712F1610F01D1420205D110F090
:101A4000004008BF6FF0004070474FF00000704743
:101A50000000000001020304010203040607080954
:041A6000020406086E
:0400000508000000EF
:00000001FF
