:020000040800F2
:100000005004002081020008E1020008E10200081B
:10001000E1020008E1020008E1020008000000001F
:10002000000000000000000000000000E1020008E5
:10003000E102000800000000E1020008E1020008FF
:10004000E1020008E1020008E1020008E102000804
:10005000E1020008E1020008E1020008E1020008F4
:10006000E1020008E1020008E1020008E1020008E4
:10007000E1020008E1020008E1020008E1020008D4
:10008000E1020008E1020008E1020008E1020008C4
:10009000E1020008E1020008E1020008E1020008B4
:1000A000E1020008E1020008E1020008E1020008A4
:1000B000E1020008E1020008E1020008E102000894
:1000C000E1020008E1020008E1020008E102000884
:1000D000E1020008E1020008E1020008E102000874
:1000E000E1020008E1020008E1020008000000004F
:1000F0000000000000000000000000000000000000
:1001000000000000000000005FF808F180B500AFBB
:10011000154A154B1B6843F0010313601249124B3B
:100120005A68124B13404B600F4A0F4B1B6823F069
:10013000847323F4803313600B4A0B4B1B6823F446
:1001400080231360084A084B5B6823F4FE03536066
:10015000054B4FF41F029A6000F00CF8044B4FF06F
:1001600000629A6000BF80BD001002400000FFF8EE
:1001700000ED00E080B500AF00F002F800BF80BDE8
:1001800080B483B000AF00237B6000233B603A4A19
:10019000394B1B6843F480331360374B1B6803F4FF
:1001A00000333B607B6801337B603B68002B03D1ED
:1001B0007B68B3F5A06FF0D12F4B1B6803F40033BD
:1001C000002B02D001233B6001E000233B603B6831
:1001D000012B4BD1294A294B1B6843F010031360B4
:1001E000264A264B1B6823F003031360234A234B44
:1001F0001B6843F0020313601F4A1F4B5B68536088
:100200001D4A1D4B5B6853601B4A1B4B5B6843F4E4
:1002100080635360184A184B5B6823F47C13536067
:10022000154A154B5B6843F4E8135360124A124BAE
:100230001B6843F08073136000BF0F4B1B6803F013
:100240000073002BF9D00C4A0B4B5B6823F00303BF
:100250005360094A084B5B6843F00203536000BFD8
:10026000054B5B6803F00C03082BF9D100BF0C377A
:10027000BD4680BC704700BF001002400020024015
:1002800080B582B000AF114B7B60114B3B6007E043
:100290003B681A1D3A607A68111D796012681A600D
:1002A0003B680C4A9342F3D30B480C494FF00002D1
:1002B0008842B8BF40F8042BFADBFFF727FF00F0B5
:1002C0004BFA00BF0837BD4680BD00BF5F10000875
:1002D0000000002018000020180000204C00002022
:1002E00080B400AFFEE700BF80B489B000AF786093
:1002F00039600023FB6100233B610023BB610023C5
:10030000FB6000237B610023BB603B68DB7803F06C
:100310000F03FB613B68DB7803F01003002B05D073
:100320003B689B781A46FB691343FB613B681B885B
:10033000DBB2002B44D07B681B687B610023BB6170
:1003400038E00122BB6902FA03F3FB603B681B88BB
:100350001A46FB6813403B613A69FB689A4226D112
:10036000BB699B00FB600F22FB6802FA03F3BB60D2
:10037000BB68DB437A6913407B61FA69FB6802FA68
:1003800003F37A6913437B613B68DB78282B05D143
:100390000122BB699A407B685A6108E03B68DB78C0
:1003A000482B04D10122BB699A407B681A61BB6962
:1003B0000133BB61BB69072BC3D97B687A691A60BB
:1003C0003B681B88FF2B46D97B685B687B610023F9
:1003D000BB613AE0BB690833012202FA03F3FB6018
:1003E0003B681B881A46FB6813403B613A69FB680F
:1003F0009A4227D1BB699B00FB600F22FB6802FA7F
:1004000003F3BB60BB68DB437A6913407B61FA6925
:10041000FB6802FA03F37A6913437B613B68DB787C
:10042000282B05D1BB69083301229A407B685A61A9
:100430003B68DB78482B05D1BB69083301229A4021
:100440007B681A61BB690133BB61BB69072BC1D9EA
:100450007B687A695A6000BF2437BD4680BC70470C
:1004600080B487B000AF78600B46FB7000233B611F
:100470000023FB6000237B610023BB607B68002BB3
:1004800003DA2E4BDB697B6102E02C4B5B687B61FE
:100490007B681B0C03F00F03BB607B689BB23B6166
:1004A0007B6803F44013B3F5401F0AD17B6923F046
:1004B00070637B61214A214B5B6823F0706353605A
:1004C00021E07B6803F48013002B0ED00322BB686D
:1004D00002FA03F3FB60FB68DB437A6913407B613C
:1004E0007B6943F070637B610DE07B685B0D1B01F2
:1004F0003A6902FA03F3DB437A6913407B617B6953
:1005000043F070637B61FB78002B08D07B685B0D48
:100510001B013A6902FA03F37A6913437B617B6832
:10052000002B03DA054A7B69D36102E0034A7B6949
:10053000536000BF1C37BD4680BC704700000140BF
:1005400080B500AF0121042000F010FA244B2022D6
:100550001A80234B0022DA70214B03229A70204923
:100560002048FFF7C1FE204800F05AFA01214FF45D
:10057000007000F0FBF94FF4804000F02BF91B4BAA
:1005800001225A71194B00221A71184B01221A7458
:10059000164B0022DA60154B4FF460229A60134923
:1005A000114800F077FA0023012205210E4800F0DF
:1005B00033FB01210C4800F0BFFA0B4800F0D8FAD9
:1005C00000BF094800F0E4FA0346002BF9D10648C1
:1005D00000F0F6FA0121044800F002FB00BF80BDE4
:1005E0004800002000080140002401401C000020B9
:1005F00084B080B582B000AF786007F1140080E865
:100600000E0001214FF4003000F0CEF9012104204A
:1006100000F0ACF90C23BB801C23FB710323BB71DE
:100620003B1D19461548FFF75FFE01210820FFF723
:1006300017FF4FF4E1337B6100233B8300233B84AE
:100640000C23FB8300237B830023BB8307F114036C
:1006500019460B4800F0B6FB0121094800F06CFC7C
:10066000002240F22551064800F086FC00BF083702
:10067000BD46BDE8804004B0704700BF000801409F
:100680000044004080B586B000AF78603960002338
:100690007B6100233B6115E000BF3B681B889BB278
:1006A00003F04003002BF8D07B697A6813441B7871
:1006B000FB73FB7B9BB21946386800F0A5FC7B6995
:1006C00001337B617B697A6813441B78002BE3D18B
:1006D00001233B6100BF1837BD4680BD80B584B0A3
:1006E00000AF03463960FB7100BF3B681B889BB2BB
:1006F00003F04003002BF8D0FA79164BA3FB02134A
:10070000D9080B469B000B445B00D31AFB73FB79A3
:10071000104AA2FB0323DB08FB71FB799BB2303349
:100720009BB21946386800F06FFC00BF3B681B881D
:100730009BB203F04003002BF8D0FB7B9BB230331D
:100740009BB21946386800F05FFC00BF1037BD4609
:1007500080BD00BFCDCCCCCC80B584B002AF154BF2
:10076000154A12681046DA6800920ECBFFF740FF78
:10077000FFF7E6FE11491248FFF784FF114800F029
:1007800015FB0346DAB2104B1A700F4B1B780B495E
:100790001846FFF7A3FF09490C48FFF773FF002332
:1007A0007B6002E07B6801337B607B68084A934290
:1007B000F8DDDFE730000020180000200044004092
:1007C0002C10000800240140000000204010000808
:1007D0001FA1070080B485B000AF78600023FB60E4
:1007E000094B5B68FB60FB6823F44043FB60FA68DD
:1007F0007B681343FB60044AFB68536000BF1437F7
:10080000BD4680BC704700BF0010024080B487B076
:1008100000AF786000237B6100233B610023FB6015
:100820000023BB604C4B5B6803F00C037B617B696E
:10083000042B07D0082B09D0002B33D17B68474A03
:100840001A6033E07B68454A1A602FE0424B5B68D0
:1008500003F470133B61404B5B6803F48033FB602F
:100860003B699B0C02333B61FB68002B06D13B6963
:100870003B4A02FB03F27B681A6017E0364B5B6869
:1008800003F40033002B06D03B69354A02FB03F228
:100890007B681A600AE03B69304A02FB03F27B681E
:1008A0001A6003E07B682D4A1A6000BF2A4B5B6820
:1008B00003F0F0037B617B691B097B61294A7B693B
:1008C00013441B78DBB2BB607B681A68BB68DA40F4
:1008D0007B685A60204B5B6803F4E0637B617B6953
:1008E0001B0A7B611F4A7B6913441B78DBB2BB6028
:1008F0007B685A68BB68DA407B689A60164B5B6815
:1009000003F460537B617B69DB0A7B61154A7B6979
:1009100013441B78DBB2BB607B685A68BB68DA4063
:100920007B68DA600C4B5B6803F440437B617B6956
:100930009B0B7B610C4A7B6913441B78DBB2BB6069
:100940007B68DA68BB68B2FBF3F27B681A6100BFB0
:100950001C37BD4680BC70470010024000127A0070
:1009600000093D00040000201400002080B483B082
:1009700000AF78600B46FB70FB78002B06D009496E
:10098000084B9A697B6813438B6106E00549054B68
:100990009A697B68DB4313408B6100BF0C37BD460F
:1009A00080BC70470010024080B483B000AF786014
:1009B0000B46FB70FB78002B06D00949084BDA691F
:1009C0007B681343CB6106E00549054BDA697B6818
:1009D000DB431340CB6100BF0C37BD4680BC704782
:1009E0000010024080B483B000AF78600B46FB700B
:1009F000FB78002B06D00949084BDA687B68134363
:100A0000CB6006E00549054BDA687B68DB431340A1
:100A1000CB6000BF0C37BD4680BC70470010024061
:100A200080B582B000AF78607B68174A93420AD1E4
:100A300001214FF40070FFF7D5FF00214FF4007043
:100A4000FFF7D0FF1CE07B68104A93420AD10121D6
:100A50004FF48060FFF7C6FF00214FF48060FFF77E
:100A6000C1FF0DE07B680A4A934209D101214FF48E
:100A70000040FFF7B7FF00214FF40040FFF7B2FF3F
:100A800000BF0837BD4680BD00240140002801405A
:100A9000003C014080B485B000AF7860396000232D
:100AA000FB600023FB727B685B68FB60FB6823F4E0
:100AB000702323F48073FB603B681A683B681B79E2
:100AC0001B021343FA681343FB607B68FA685A60A1
:100AD0007B689B68FB60FA68164B1340FB603B68C1
:100AE000DA683B689B681A433B685B795B00134399
:100AF000FA681343FB607B68FA689A607B68DB6A7C
:100B0000FB60FB6823F47003FB603B681B7C013BCC
:100B1000DAB2FB7A1343FB72FB7A1B05FA681343C4
:100B2000FB607B68FA68DA6200BF1437BD4680BCA0
:100B3000704700BFFDF7F1FF80B483B000AF78606D
:100B40000B46FB70FB78002B06D07B689B6843F05C
:100B500001027B689A6005E07B689B6823F00102D4
:100B60007B689A6000BF0C37BD4680BC704700BFF1
:100B700080B483B000AF78607B689B6843F0080264
:100B80007B689A6000BF0C37BD4680BC704700BFD1
:100B900080B485B000AF78600023FB737B689B68EE
:100BA00003F00803002B02D00123FB7301E00023B4
:100BB000FB73FB7B18461437BD4680BC704700BFF3
:100BC00080B483B000AF78607B689B6843F0040218
:100BD0007B689A6000BF0C37BD4680BC704700BF81
:100BE00080B483B000AF78600B46FB70FB78002BBD
:100BF00006D07B689B6843F4A0027B689A6005E09E
:100C00007B689B6823F4A0027B689A6000BF0C3766
:100C1000BD4680BC704700BF80B485B000AF78602F
:100C2000084611461A460346FB700B46BB70134636
:100C30007B700023FB600023BB60FB78092B23D96A
:100C40007B68DB68FB60FB78A3F10A0213465B005C
:100C50001344072202FA03F3BB60BB68DB43FA6864
:100C60001340FB607978FB78A3F10A0213465B001E
:100C7000134401FA03F3BB60FA68BB681343FB60DB
:100C80007B68FA68DA601EE07B681B69FB60FA78B3
:100C900013465B001344072202FA03F3BB60BB68F0
:100CA000DB43FA681340FB607978FA7813465B00FF
:100CB000134401FA03F3BB60FA68BB681343FB609B
:100CC0007B68FA681A61BB78062B21D87B685B6B5E
:100CD000FB60BB785A1E13469B0013441F2202FA86
:100CE00003F3BB60BB68DB43FA681340FB60F97831
:100CF000BB785A1E13469B00134401FA03F3BB60F2
:100D0000FA68BB681343FB607B68FA685A6347E084
:100D1000BB780C2B21D87B681B6BFB60BB78DA1F80
:100D200013469B0013441F2202FA03F3BB60BB6807
:100D3000DB43FA681340FB60F978BB78DA1F13468F
:100D40009B00134401FA03F3BB60FA68BB681343CA
:100D5000FB607B68FA681A6322E07B68DB6AFB60F1
:100D6000BB78A3F10D0213469B0013441F2202FA25
:100D700003F3BB60BB68DB43FA681340FB60F978A0
:100D8000BB78A3F10D0213469B00134401FA03F351
:100D9000BB60FA68BB681343FB607B68FA68DA6281
:100DA00000BF1437BD4680BC704700BF80B483B01D
:100DB00000AF78607B68DB6C9BB218460C37BD4691
:100DC00080BC704780B58CB000AF7860396000237C
:100DD000FB620023BB6200237B6200233B62002393
:100DE000FB617B68FB617B681B8A9BB2FB62FA6AD2
:100DF0004CF6FF731340FB623B68DB881A46FB6AC4
:100E00001343FB62FB6A9AB27B681A827B689B89F8
:100E10009BB2FB62FA6A4EF6F3131340FB623B6827
:100E20009A883B681B8913439AB23B685B891343DA
:100E30009BB21A46FB6A1343FB62FB6A9AB27B6859
:100E40009A817B689B8A9BB2FB62FA6A4FF6FF43EA
:100E50001340FB623B689B891A46FB6A1343FB62A3
:100E6000FB6A9AB27B689A8207F108031846FFF77B
:100E7000CDFCFB692E4A934202D17B69BB6201E043
:100E80003B69BB627B689B899BB21BB2002B0CDA6F
:100E9000BA6A13469B0013449A001A443B681B68C5
:100EA0005B00B2FBF3F37B620BE0BA6A13469B0074
:100EB00013449A001A443B681B689B00B2FBF3F38F
:100EC0007B627B6A1B4AA2FB03235B091B01FB625B
:100ED000FB6A1B09642202FB03F37A6AD31A3B62A2
:100EE0007B689B899BB21BB2002B0CDA3B6ADB0050
:100EF0003233104AA2FB03235B0903F00703FA6AAB
:100F00001343FB620BE03B6A1B013233094AA2FB2D
:100F100003235B0903F00F03FA6A1343FB62FB6AC6
:100F20009AB27B681A8100BF3037BD4680BD00BFD2
:100F3000003801401F85EB5180B483B000AF78606A
:100F40000B46FB70FB78002B08D07B689B899BB21B
:100F500043F400539AB27B689A8107E07B689B89CF
:100F60009BB223F400539AB27B689A8100BF0C377E
:100F7000BD4680BC704700BF80B487B000AF7860CA
:100F80000B467B8013467B7000233B610023FB6094
:100F90000023BB6000237B617B687B617B88DBB2C5
:100FA0005B09DBB23B617B8803F01F03FB6001221E
:100FB000FB6802FA03F3BB603B69012B03D17B6939
:100FC0000C337B6109E03B69022B03D17B69103351
:100FD0007B6102E07B6914337B617B78002B06D058
:100FE0007B697A691168BA680A431A6006E07B690E
:100FF0007A691168BA68D2430A401A6000BF1C3788
:10100000BD4680BC704700BF80B483B000AF78603D
:101010000B467B807B88C3F308039AB27B689A8077
:1010200000BF0C37BD4680BC704700BF54686520C8
:101030006D6F69737475726520697320000000001C
:1010400020506C656173652C207761746572202077
:0F10500074686520706C616E740D0A2121210097
:10105F003700000000000000010203040102030436
:08106F00060708090204060847
:0400000508000000EF
:00000001FF
