:020000040800F2
:100000001804002081020008E1020008E102000853
:10001000E1020008E1020008E1020008000000001F
:10002000000000000000000000000000E1020008E5
:10003000E102000800000000E1020008E1020008FF
:10004000E1020008E1020008E1020008E102000804
:10005000E1020008E1020008E1020008E1020008F4
:10006000E1020008E1020008E1020008E1020008E4
:10007000E1020008E1020008E1020008E1020008D4
:10008000E1020008E1020008E1020008E1020008C4
:10009000E1020008E1020008E1020008E1020008B4
:1000A000E1020008E1020008E1020008E1020008A4
:1000B000E1020008E1020008E1020008E102000894
:1000C000E1020008E1020008E1020008E102000884
:1000D000E1020008E1020008E1020008E102000874
:1000E000E1020008E1020008E1020008000000004F
:1000F0000000000000000000000000000000000000
:1001000000000000000000005FF808F180B500AFBB
:10011000154A154B1B6843F0010313601249124B3B
:100120005A68124B13404B600F4A0F4B1B6823F069
:10013000847323F4803313600B4A0B4B1B6823F446
:1001400080231360084A084B5B6823F4FE03536066
:10015000054B4FF41F029A6000F00CF8044B4FF06F
:1001600000629A6000BF80BD001002400000FFF8EE
:1001700000ED00E080B500AF00F002F800BF80BDE8
:1001800080B483B000AF00237B6000233B603A4A19
:10019000394B1B6843F480331360374B1B6803F4FF
:1001A00000333B607B6801337B603B68002B03D1ED
:1001B0007B68B3F5A06FF0D12F4B1B6803F40033BD
:1001C000002B02D001233B6001E000233B603B6831
:1001D000012B4BD1294A294B1B6843F010031360B4
:1001E000264A264B1B6823F003031360234A234B44
:1001F0001B6843F0020313601F4A1F4B5B68536088
:100200001D4A1D4B5B6853601B4A1B4B5B6843F4E4
:1002100080635360184A184B5B6823F47C13536067
:10022000154A154B5B6843F4E8135360124A124BAE
:100230001B6843F08073136000BF0F4B1B6803F013
:100240000073002BF9D00C4A0B4B5B6823F00303BF
:100250005360094A084B5B6843F00203536000BFD8
:10026000054B5B6803F00C03082BF9D100BF0C377A
:10027000BD4680BC704700BF001002400020024015
:1002800080B582B000AF114B7B60114B3B6007E043
:100290003B681A1D3A607A68111D796012681A600D
:1002A0003B680C4A9342F3D30B480C494FF00002D1
:1002B0008842B8BF40F8042BFADBFFF727FF00F0B5
:1002C000CFF800BF0837BD4680BD00BF8C090008CD
:1002D0000000002000000020000000201800002086
:1002E00080B400AFFEE700BF80B489B000AF786093
:1002F00039600023FB6100233B610023BB610023C5
:10030000FB6000237B610023BB603B68DB7803F06C
:100310000F03FB613B68DB7803F01003002B05D073
:100320003B689B781A46FB691343FB613B681B885B
:10033000DBB2002B44D07B681B687B610023BB6170
:1003400038E00122BB6902FA03F3FB603B681B88BB
:100350001A46FB6813403B613A69FB689A4226D112
:10036000BB699B00FB600F22FB6802FA03F3BB60D2
:10037000BB68DB437A6913407B61FA69FB6802FA68
:1003800003F37A6913437B613B68DB78282B05D143
:100390000122BB699A407B685A6108E03B68DB78C0
:1003A000482B04D10122BB699A407B681A61BB6962
:1003B0000133BB61BB69072BC3D97B687A691A60BB
:1003C0003B681B88FF2B46D97B685B687B610023F9
:1003D000BB613AE0BB690833012202FA03F3FB6018
:1003E0003B681B881A46FB6813403B613A69FB680F
:1003F0009A4227D1BB699B00FB600F22FB6802FA7F
:1004000003F3BB60BB68DB437A6913407B61FA6925
:10041000FB6802FA03F37A6913437B613B68DB787C
:10042000282B05D1BB69083301229A407B685A61A9
:100430003B68DB78482B05D1BB69083301229A4021
:100440007B681A61BB690133BB61BB69072BC1D9EA
:100450007B687A695A6000BF2437BD4680BC70470C
:1004600080B582B000AF0121042000F081F82D4B4F
:1004700020221A802B4B0022DA702A4B03229A701A
:1004800028492948FFF730FF284800F0ADF801213E
:100490004FF4007000F06CF84FF4804000F04CF81E
:1004A000234B01225A71224B00221A71204B012248
:1004B0001A741F4B0022DA601D4B4FF460229A60C1
:1004C0001B491A4800F0CAF80023012205211748E9
:1004D00000F086F90121154800F012F9134800F0E8
:1004E0002BF900BF114800F037F90346002BF9D172
:1004F0000E4800F049F901210C4800F055F900239D
:100500007B800A4800F036FA03467B8000237B603C
:1005100002E07B6801337B607B68064A9342F8DD2A
:10052000EDE700BF14000020000801400024014056
:10053000000000201FA1070080B485B000AF7860E4
:100540000023FB60094B5B68FB60FB6823F44043BE
:10055000FB60FA687B681343FB60044AFB685360E6
:1005600000BF1437BD4680BC704700BF001002407A
:1005700080B483B000AF78600B46FB70FB78002B33
:1005800006D00949084B9A697B6813438B6106E0E2
:100590000549054B9A697B68DB4313408B6100BFBB
:1005A0000C37BD4680BC70470010024080B483B059
:1005B00000AF78600B46FB70FB78002B06D0094932
:1005C000084BDA687B681343CB6006E00549054BAE
:1005D000DA687B68DB431340CB6000BF0C37BD4655
:1005E00080BC70470010024080B582B000AF7860D8
:1005F0007B68174A93420AD101214FF40070FFF73C
:10060000D5FF00214FF40070FFF7D0FF1CE07B689E
:10061000104A93420AD101214FF48060FFF7C6FFD0
:1006200000214FF48060FFF7C1FF0DE07B680A4AAC
:10063000934209D101214FF40040FFF7B7FF002199
:100640004FF40040FFF7B2FF00BF0837BD4680BD42
:100650000024014000280140003C014080B485B0E6
:1006600000AF786039600023FB600023FB727B6879
:100670005B68FB60FB6823F4702323F48073FB60EA
:100680003B681A683B681B791B021343FA681343E3
:10069000FB607B68FA685A607B689B68FB60FA685D
:1006A000164B1340FB603B68DA683B689B681A4353
:1006B0003B685B795B001343FA681343FB607B681C
:1006C000FA689A607B68DB6AFB60FB6823F470035E
:1006D000FB603B681B7C013BDAB2FB7A1343FB7285
:1006E000FB7A1B05FA681343FB607B68FA68DA62E1
:1006F00000BF1437BD4680BC704700BFFDF7F1FF57
:1007000080B483B000AF78600B46FB70FB78002BA1
:1007100006D07B689B6843F001027B689A6005E025
:100720007B689B6823F001027B689A6000BF0C37EE
:10073000BD4680BC704700BF80B483B000AF786016
:100740007B689B6843F008027B689A6000BF0C37A7
:10075000BD4680BC704700BF80B485B000AF7860F4
:100760000023FB737B689B6803F00803002B02D017
:100770000123FB7301E00023FB73FB7B1846143756
:10078000BD4680BC704700BF80B483B000AF7860C6
:100790007B689B6843F004027B689A6000BF0C375B
:1007A000BD4680BC704700BF80B483B000AF7860A6
:1007B0000B46FB70FB78002B06D07B689B6843F4EC
:1007C000A0027B689A6005E07B689B6823F4A00226
:1007D0007B689A6000BF0C37BD4680BC704700BF85
:1007E00080B485B000AF7860084611461A460346CB
:1007F000FB700B46BB7013467B700023FB6000232D
:10080000BB60FB78092B23D97B68DB68FB60FB7836
:10081000A3F10A0213465B001344072202FA03F312
:10082000BB60BB68DB43FA681340FB607978FB78F8
:10083000A3F10A0213465B00134401FA03F3BB6001
:10084000FA68BB681343FB607B68FA68DA601EE0F5
:100850007B681B69FB60FA7813465B001344072230
:1008600002FA03F3BB60BB68DB43FA681340FB602A
:100870007978FA7813465B00134401FA03F3BB60FE
:10088000FA68BB681343FB607B68FA681A61BB783F
:10089000062B21D87B685B6BFB60BB785A1E134626
:1008A0009B0013441F2202FA03F3BB60BB68DB43C7
:1008B000FA681340FB60F978BB785A1E13469B0018
:1008C000134401FA03F3BB60FA68BB681343FB608F
:1008D0007B68FA685A6347E0BB780C2B21D87B68A9
:1008E0001B6BFB60BB78DA1F13469B0013441F226F
:1008F00002FA03F3BB60BB68DB43FA681340FB609A
:10090000F978BB78DA1F13469B00134401FA03F30E
:10091000BB60FA68BB681343FB607B68FA681A63C4
:1009200022E07B68DB6AFB60BB78A3F10D02134613
:100930009B0013441F2202FA03F3BB60BB68DB4336
:10094000FA681340FB60F978BB78A3F10D021346F7
:100950009B00134401FA03F3BB60FA68BB681343BE
:10096000FB607B68FA68DA6200BF1437BD4680BC62
:10097000704700BF80B483B000AF78607B68DB6CE9
:0C0980009BB218460C37BD4680BC704787
:0400000508000000EF
:00000001FF
